{
	"DEPLOY & RUN TRANSACTIONS/SimpleArithmetic.sol": {
		"ArithmeticContract": {
			"abi": [
				{
					"inputs": [
						{
							"internalType": "uint256",
							"name": "number",
							"type": "uint256"
						}
					],
					"name": "evenNum",
					"outputs": [
						{
							"internalType": "bool",
							"name": "",
							"type": "bool"
						}
					],
					"stateMutability": "pure",
					"type": "function"
				},
				{
					"inputs": [
						{
							"internalType": "uint256",
							"name": "number",
							"type": "uint256"
						},
						{
							"internalType": "uint8",
							"name": "bits",
							"type": "uint8"
						}
					],
					"name": "getMostSignificantBits",
					"outputs": [
						{
							"internalType": "uint256",
							"name": "",
							"type": "uint256"
						}
					],
					"stateMutability": "pure",
					"type": "function"
				},
				{
					"inputs": [
						{
							"internalType": "uint256",
							"name": "number",
							"type": "uint256"
						}
					],
					"name": "oddNum",
					"outputs": [
						{
							"internalType": "bool",
							"name": "",
							"type": "bool"
						}
					],
					"stateMutability": "pure",
					"type": "function"
				}
			],
			"devdoc": {
				"kind": "dev",
				"methods": {},
				"version": 1
			},
			"evm": {
				"assembly": "    /* \"DEPLOY & RUN TRANSACTIONS/SimpleArithmetic.sol\":63:783  contract ArithmeticContract {... */\n  mstore(0x40, 0x80)\n  callvalue\n  dup1\n  iszero\n  tag_1\n  jumpi\n  0x00\n  dup1\n  revert\ntag_1:\n  pop\n  dataSize(sub_0)\n  dup1\n  dataOffset(sub_0)\n  0x00\n  codecopy\n  0x00\n  return\nstop\n\nsub_0: assembly {\n        /* \"DEPLOY & RUN TRANSACTIONS/SimpleArithmetic.sol\":63:783  contract ArithmeticContract {... */\n      mstore(0x40, 0x80)\n      callvalue\n      dup1\n      iszero\n      tag_1\n      jumpi\n      0x00\n      dup1\n      revert\n    tag_1:\n      pop\n      jumpi(tag_2, lt(calldatasize, 0x04))\n      shr(0xe0, calldataload(0x00))\n      dup1\n      0x0441a315\n      eq\n      tag_3\n      jumpi\n      dup1\n      0x49a7e03d\n      eq\n      tag_4\n      jumpi\n      dup1\n      0xc04631fa\n      eq\n      tag_5\n      jumpi\n    tag_2:\n      0x00\n      dup1\n      revert\n        /* \"DEPLOY & RUN TRANSACTIONS/SimpleArithmetic.sol\":143:243  function oddNum(uint256 number) public pure returns (bool) {... */\n    tag_3:\n      tag_6\n      0x04\n      dup1\n      calldatasize\n      sub\n      dup2\n      add\n      swap1\n      tag_7\n      swap2\n      swap1\n      tag_8\n      jump\t// in\n    tag_7:\n      tag_9\n      jump\t// in\n    tag_6:\n      mload(0x40)\n      tag_10\n      swap2\n      swap1\n      tag_11\n      jump\t// in\n    tag_10:\n      mload(0x40)\n      dup1\n      swap2\n      sub\n      swap1\n      return\n        /* \"DEPLOY & RUN TRANSACTIONS/SimpleArithmetic.sol\":467:780  function getMostSignificantBits(... */\n    tag_4:\n      tag_12\n      0x04\n      dup1\n      calldatasize\n      sub\n      dup2\n      add\n      swap1\n      tag_13\n      swap2\n      swap1\n      tag_14\n      jump\t// in\n    tag_13:\n      tag_15\n      jump\t// in\n    tag_12:\n      mload(0x40)\n      tag_16\n      swap2\n      swap1\n      tag_17\n      jump\t// in\n    tag_16:\n      mload(0x40)\n      dup1\n      swap2\n      sub\n      swap1\n      return\n        /* \"DEPLOY & RUN TRANSACTIONS/SimpleArithmetic.sol\":297:398  function evenNum(uint256 number) public pure returns (bool) {... */\n    tag_5:\n      tag_18\n      0x04\n      dup1\n      calldatasize\n      sub\n      dup2\n      add\n      swap1\n      tag_19\n      swap2\n      swap1\n      tag_8\n      jump\t// in\n    tag_19:\n      tag_20\n      jump\t// in\n    tag_18:\n      mload(0x40)\n      tag_21\n      swap2\n      swap1\n      tag_11\n      jump\t// in\n    tag_21:\n      mload(0x40)\n      dup1\n      swap2\n      sub\n      swap1\n      return\n        /* \"DEPLOY & RUN TRANSACTIONS/SimpleArithmetic.sol\":143:243  function oddNum(uint256 number) public pure returns (bool) {... */\n    tag_9:\n        /* \"DEPLOY & RUN TRANSACTIONS/SimpleArithmetic.sol\":196:200  bool */\n      0x00\n        /* \"DEPLOY & RUN TRANSACTIONS/SimpleArithmetic.sol\":234:235  0 */\n      dup1\n        /* \"DEPLOY & RUN TRANSACTIONS/SimpleArithmetic.sol\":229:230  2 */\n      0x02\n        /* \"DEPLOY & RUN TRANSACTIONS/SimpleArithmetic.sol\":220:226  number */\n      dup4\n        /* \"DEPLOY & RUN TRANSACTIONS/SimpleArithmetic.sol\":220:230  number % 2 */\n      tag_23\n      swap2\n      swap1\n      tag_24\n      jump\t// in\n    tag_23:\n        /* \"DEPLOY & RUN TRANSACTIONS/SimpleArithmetic.sol\":220:235  number % 2 != 0 */\n      eq\n      iszero\n        /* \"DEPLOY & RUN TRANSACTIONS/SimpleArithmetic.sol\":213:235  return number % 2 != 0 */\n      swap1\n      pop\n        /* \"DEPLOY & RUN TRANSACTIONS/SimpleArithmetic.sol\":143:243  function oddNum(uint256 number) public pure returns (bool) {... */\n      swap2\n      swap1\n      pop\n      jump\t// out\n        /* \"DEPLOY & RUN TRANSACTIONS/SimpleArithmetic.sol\":467:780  function getMostSignificantBits(... */\n    tag_15:\n        /* \"DEPLOY & RUN TRANSACTIONS/SimpleArithmetic.sol\":573:580  uint256 */\n      0x00\n        /* \"DEPLOY & RUN TRANSACTIONS/SimpleArithmetic.sol\":608:609  0 */\n      dup1\n        /* \"DEPLOY & RUN TRANSACTIONS/SimpleArithmetic.sol\":601:605  bits */\n      dup3\n        /* \"DEPLOY & RUN TRANSACTIONS/SimpleArithmetic.sol\":601:609  bits > 0 */\n      0xff\n      and\n      gt\n        /* \"DEPLOY & RUN TRANSACTIONS/SimpleArithmetic.sol\":601:623  bits > 0 && bits <= 32 */\n      dup1\n      iszero\n      tag_26\n      jumpi\n      pop\n        /* \"DEPLOY & RUN TRANSACTIONS/SimpleArithmetic.sol\":621:623  32 */\n      0x20\n        /* \"DEPLOY & RUN TRANSACTIONS/SimpleArithmetic.sol\":613:617  bits */\n      dup3\n        /* \"DEPLOY & RUN TRANSACTIONS/SimpleArithmetic.sol\":613:623  bits <= 32 */\n      0xff\n      and\n      gt\n      iszero\n        /* \"DEPLOY & RUN TRANSACTIONS/SimpleArithmetic.sol\":601:623  bits > 0 && bits <= 32 */\n    tag_26:\n        /* \"DEPLOY & RUN TRANSACTIONS/SimpleArithmetic.sol\":593:650  require(bits > 0 && bits <= 32, \"Invalid number of bits\") */\n      tag_27\n      jumpi\n      mload(0x40)\n      0x08c379a000000000000000000000000000000000000000000000000000000000\n      dup2\n      mstore\n      0x04\n      add\n      tag_28\n      swap1\n      tag_29\n      jump\t// in\n    tag_28:\n      mload(0x40)\n      dup1\n      swap2\n      sub\n      swap1\n      revert\n    tag_27:\n        /* \"DEPLOY & RUN TRANSACTIONS/SimpleArithmetic.sol\":767:771  bits */\n      dup2\n        /* \"DEPLOY & RUN TRANSACTIONS/SimpleArithmetic.sol\":762:764  32 */\n      0x20\n        /* \"DEPLOY & RUN TRANSACTIONS/SimpleArithmetic.sol\":762:771  32 - bits */\n      tag_30\n      swap2\n      swap1\n      tag_31\n      jump\t// in\n    tag_30:\n        /* \"DEPLOY & RUN TRANSACTIONS/SimpleArithmetic.sol\":751:772  number >> (32 - bits) */\n      0xff\n      and\n        /* \"DEPLOY & RUN TRANSACTIONS/SimpleArithmetic.sol\":751:757  number */\n      dup4\n        /* \"DEPLOY & RUN TRANSACTIONS/SimpleArithmetic.sol\":751:772  number >> (32 - bits) */\n      swap1\n      shr\n        /* \"DEPLOY & RUN TRANSACTIONS/SimpleArithmetic.sol\":744:772  return number >> (32 - bits) */\n      swap1\n      pop\n        /* \"DEPLOY & RUN TRANSACTIONS/SimpleArithmetic.sol\":467:780  function getMostSignificantBits(... */\n      swap3\n      swap2\n      pop\n      pop\n      jump\t// out\n        /* \"DEPLOY & RUN TRANSACTIONS/SimpleArithmetic.sol\":297:398  function evenNum(uint256 number) public pure returns (bool) {... */\n    tag_20:\n        /* \"DEPLOY & RUN TRANSACTIONS/SimpleArithmetic.sol\":351:355  bool */\n      0x00\n        /* \"DEPLOY & RUN TRANSACTIONS/SimpleArithmetic.sol\":389:390  0 */\n      dup1\n        /* \"DEPLOY & RUN TRANSACTIONS/SimpleArithmetic.sol\":384:385  2 */\n      0x02\n        /* \"DEPLOY & RUN TRANSACTIONS/SimpleArithmetic.sol\":375:381  number */\n      dup4\n        /* \"DEPLOY & RUN TRANSACTIONS/SimpleArithmetic.sol\":375:385  number % 2 */\n      tag_33\n      swap2\n      swap1\n      tag_24\n      jump\t// in\n    tag_33:\n        /* \"DEPLOY & RUN TRANSACTIONS/SimpleArithmetic.sol\":375:390  number % 2 == 0 */\n      eq\n        /* \"DEPLOY & RUN TRANSACTIONS/SimpleArithmetic.sol\":368:390  return number % 2 == 0 */\n      swap1\n      pop\n        /* \"DEPLOY & RUN TRANSACTIONS/SimpleArithmetic.sol\":297:398  function evenNum(uint256 number) public pure returns (bool) {... */\n      swap2\n      swap1\n      pop\n      jump\t// out\n        /* \"#utility.yul\":88:205   */\n    tag_35:\n        /* \"#utility.yul\":197:198   */\n      0x00\n        /* \"#utility.yul\":194:195   */\n      dup1\n        /* \"#utility.yul\":187:199   */\n      revert\n        /* \"#utility.yul\":334:411   */\n    tag_37:\n        /* \"#utility.yul\":371:378   */\n      0x00\n        /* \"#utility.yul\":400:405   */\n      dup2\n        /* \"#utility.yul\":389:405   */\n      swap1\n      pop\n        /* \"#utility.yul\":334:411   */\n      swap2\n      swap1\n      pop\n      jump\t// out\n        /* \"#utility.yul\":417:539   */\n    tag_38:\n        /* \"#utility.yul\":490:514   */\n      tag_57\n        /* \"#utility.yul\":508:513   */\n      dup2\n        /* \"#utility.yul\":490:514   */\n      tag_37\n      jump\t// in\n    tag_57:\n        /* \"#utility.yul\":483:488   */\n      dup2\n        /* \"#utility.yul\":480:515   */\n      eq\n        /* \"#utility.yul\":470:533   */\n      tag_58\n      jumpi\n        /* \"#utility.yul\":529:530   */\n      0x00\n        /* \"#utility.yul\":526:527   */\n      dup1\n        /* \"#utility.yul\":519:531   */\n      revert\n        /* \"#utility.yul\":470:533   */\n    tag_58:\n        /* \"#utility.yul\":417:539   */\n      pop\n      jump\t// out\n        /* \"#utility.yul\":545:684   */\n    tag_39:\n        /* \"#utility.yul\":591:596   */\n      0x00\n        /* \"#utility.yul\":629:635   */\n      dup2\n        /* \"#utility.yul\":616:636   */\n      calldataload\n        /* \"#utility.yul\":607:636   */\n      swap1\n      pop\n        /* \"#utility.yul\":645:678   */\n      tag_60\n        /* \"#utility.yul\":672:677   */\n      dup2\n        /* \"#utility.yul\":645:678   */\n      tag_38\n      jump\t// in\n    tag_60:\n        /* \"#utility.yul\":545:684   */\n      swap3\n      swap2\n      pop\n      pop\n      jump\t// out\n        /* \"#utility.yul\":690:1019   */\n    tag_8:\n        /* \"#utility.yul\":749:755   */\n      0x00\n        /* \"#utility.yul\":798:800   */\n      0x20\n        /* \"#utility.yul\":786:795   */\n      dup3\n        /* \"#utility.yul\":777:784   */\n      dup5\n        /* \"#utility.yul\":773:796   */\n      sub\n        /* \"#utility.yul\":769:801   */\n      slt\n        /* \"#utility.yul\":766:885   */\n      iszero\n      tag_62\n      jumpi\n        /* \"#utility.yul\":804:883   */\n      tag_63\n      tag_35\n      jump\t// in\n    tag_63:\n        /* \"#utility.yul\":766:885   */\n    tag_62:\n        /* \"#utility.yul\":924:925   */\n      0x00\n        /* \"#utility.yul\":949:1002   */\n      tag_64\n        /* \"#utility.yul\":994:1001   */\n      dup5\n        /* \"#utility.yul\":985:991   */\n      dup3\n        /* \"#utility.yul\":974:983   */\n      dup6\n        /* \"#utility.yul\":970:992   */\n      add\n        /* \"#utility.yul\":949:1002   */\n      tag_39\n      jump\t// in\n    tag_64:\n        /* \"#utility.yul\":939:1002   */\n      swap2\n      pop\n        /* \"#utility.yul\":895:1012   */\n      pop\n        /* \"#utility.yul\":690:1019   */\n      swap3\n      swap2\n      pop\n      pop\n      jump\t// out\n        /* \"#utility.yul\":1025:1115   */\n    tag_40:\n        /* \"#utility.yul\":1059:1066   */\n      0x00\n        /* \"#utility.yul\":1102:1107   */\n      dup2\n        /* \"#utility.yul\":1095:1108   */\n      iszero\n        /* \"#utility.yul\":1088:1109   */\n      iszero\n        /* \"#utility.yul\":1077:1109   */\n      swap1\n      pop\n        /* \"#utility.yul\":1025:1115   */\n      swap2\n      swap1\n      pop\n      jump\t// out\n        /* \"#utility.yul\":1121:1230   */\n    tag_41:\n        /* \"#utility.yul\":1202:1223   */\n      tag_67\n        /* \"#utility.yul\":1217:1222   */\n      dup2\n        /* \"#utility.yul\":1202:1223   */\n      tag_40\n      jump\t// in\n    tag_67:\n        /* \"#utility.yul\":1197:1200   */\n      dup3\n        /* \"#utility.yul\":1190:1224   */\n      mstore\n        /* \"#utility.yul\":1121:1230   */\n      pop\n      pop\n      jump\t// out\n        /* \"#utility.yul\":1236:1446   */\n    tag_11:\n        /* \"#utility.yul\":1323:1327   */\n      0x00\n        /* \"#utility.yul\":1361:1363   */\n      0x20\n        /* \"#utility.yul\":1350:1359   */\n      dup3\n        /* \"#utility.yul\":1346:1364   */\n      add\n        /* \"#utility.yul\":1338:1364   */\n      swap1\n      pop\n        /* \"#utility.yul\":1374:1439   */\n      tag_69\n        /* \"#utility.yul\":1436:1437   */\n      0x00\n        /* \"#utility.yul\":1425:1434   */\n      dup4\n        /* \"#utility.yul\":1421:1438   */\n      add\n        /* \"#utility.yul\":1412:1418   */\n      dup5\n        /* \"#utility.yul\":1374:1439   */\n      tag_41\n      jump\t// in\n    tag_69:\n        /* \"#utility.yul\":1236:1446   */\n      swap3\n      swap2\n      pop\n      pop\n      jump\t// out\n        /* \"#utility.yul\":1452:1538   */\n    tag_42:\n        /* \"#utility.yul\":1487:1494   */\n      0x00\n        /* \"#utility.yul\":1527:1531   */\n      0xff\n        /* \"#utility.yul\":1520:1525   */\n      dup3\n        /* \"#utility.yul\":1516:1532   */\n      and\n        /* \"#utility.yul\":1505:1532   */\n      swap1\n      pop\n        /* \"#utility.yul\":1452:1538   */\n      swap2\n      swap1\n      pop\n      jump\t// out\n        /* \"#utility.yul\":1544:1662   */\n    tag_43:\n        /* \"#utility.yul\":1615:1637   */\n      tag_72\n        /* \"#utility.yul\":1631:1636   */\n      dup2\n        /* \"#utility.yul\":1615:1637   */\n      tag_42\n      jump\t// in\n    tag_72:\n        /* \"#utility.yul\":1608:1613   */\n      dup2\n        /* \"#utility.yul\":1605:1638   */\n      eq\n        /* \"#utility.yul\":1595:1656   */\n      tag_73\n      jumpi\n        /* \"#utility.yul\":1652:1653   */\n      0x00\n        /* \"#utility.yul\":1649:1650   */\n      dup1\n        /* \"#utility.yul\":1642:1654   */\n      revert\n        /* \"#utility.yul\":1595:1656   */\n    tag_73:\n        /* \"#utility.yul\":1544:1662   */\n      pop\n      jump\t// out\n        /* \"#utility.yul\":1668:1803   */\n    tag_44:\n        /* \"#utility.yul\":1712:1717   */\n      0x00\n        /* \"#utility.yul\":1750:1756   */\n      dup2\n        /* \"#utility.yul\":1737:1757   */\n      calldataload\n        /* \"#utility.yul\":1728:1757   */\n      swap1\n      pop\n        /* \"#utility.yul\":1766:1797   */\n      tag_75\n        /* \"#utility.yul\":1791:1796   */\n      dup2\n        /* \"#utility.yul\":1766:1797   */\n      tag_43\n      jump\t// in\n    tag_75:\n        /* \"#utility.yul\":1668:1803   */\n      swap3\n      swap2\n      pop\n      pop\n      jump\t// out\n        /* \"#utility.yul\":1809:2279   */\n    tag_14:\n        /* \"#utility.yul\":1875:1881   */\n      0x00\n        /* \"#utility.yul\":1883:1889   */\n      dup1\n        /* \"#utility.yul\":1932:1934   */\n      0x40\n        /* \"#utility.yul\":1920:1929   */\n      dup4\n        /* \"#utility.yul\":1911:1918   */\n      dup6\n        /* \"#utility.yul\":1907:1930   */\n      sub\n        /* \"#utility.yul\":1903:1935   */\n      slt\n        /* \"#utility.yul\":1900:2019   */\n      iszero\n      tag_77\n      jumpi\n        /* \"#utility.yul\":1938:2017   */\n      tag_78\n      tag_35\n      jump\t// in\n    tag_78:\n        /* \"#utility.yul\":1900:2019   */\n    tag_77:\n        /* \"#utility.yul\":2058:2059   */\n      0x00\n        /* \"#utility.yul\":2083:2136   */\n      tag_79\n        /* \"#utility.yul\":2128:2135   */\n      dup6\n        /* \"#utility.yul\":2119:2125   */\n      dup3\n        /* \"#utility.yul\":2108:2117   */\n      dup7\n        /* \"#utility.yul\":2104:2126   */\n      add\n        /* \"#utility.yul\":2083:2136   */\n      tag_39\n      jump\t// in\n    tag_79:\n        /* \"#utility.yul\":2073:2136   */\n      swap3\n      pop\n        /* \"#utility.yul\":2029:2146   */\n      pop\n        /* \"#utility.yul\":2185:2187   */\n      0x20\n        /* \"#utility.yul\":2211:2262   */\n      tag_80\n        /* \"#utility.yul\":2254:2261   */\n      dup6\n        /* \"#utility.yul\":2245:2251   */\n      dup3\n        /* \"#utility.yul\":2234:2243   */\n      dup7\n        /* \"#utility.yul\":2230:2252   */\n      add\n        /* \"#utility.yul\":2211:2262   */\n      tag_44\n      jump\t// in\n    tag_80:\n        /* \"#utility.yul\":2201:2262   */\n      swap2\n      pop\n        /* \"#utility.yul\":2156:2272   */\n      pop\n        /* \"#utility.yul\":1809:2279   */\n      swap3\n      pop\n      swap3\n      swap1\n      pop\n      jump\t// out\n        /* \"#utility.yul\":2285:2403   */\n    tag_45:\n        /* \"#utility.yul\":2372:2396   */\n      tag_82\n        /* \"#utility.yul\":2390:2395   */\n      dup2\n        /* \"#utility.yul\":2372:2396   */\n      tag_37\n      jump\t// in\n    tag_82:\n        /* \"#utility.yul\":2367:2370   */\n      dup3\n        /* \"#utility.yul\":2360:2397   */\n      mstore\n        /* \"#utility.yul\":2285:2403   */\n      pop\n      pop\n      jump\t// out\n        /* \"#utility.yul\":2409:2631   */\n    tag_17:\n        /* \"#utility.yul\":2502:2506   */\n      0x00\n        /* \"#utility.yul\":2540:2542   */\n      0x20\n        /* \"#utility.yul\":2529:2538   */\n      dup3\n        /* \"#utility.yul\":2525:2543   */\n      add\n        /* \"#utility.yul\":2517:2543   */\n      swap1\n      pop\n        /* \"#utility.yul\":2553:2624   */\n      tag_84\n        /* \"#utility.yul\":2621:2622   */\n      0x00\n        /* \"#utility.yul\":2610:2619   */\n      dup4\n        /* \"#utility.yul\":2606:2623   */\n      add\n        /* \"#utility.yul\":2597:2603   */\n      dup5\n        /* \"#utility.yul\":2553:2624   */\n      tag_45\n      jump\t// in\n    tag_84:\n        /* \"#utility.yul\":2409:2631   */\n      swap3\n      swap2\n      pop\n      pop\n      jump\t// out\n        /* \"#utility.yul\":2637:2817   */\n    tag_46:\n        /* \"#utility.yul\":2685:2762   */\n      0x4e487b7100000000000000000000000000000000000000000000000000000000\n        /* \"#utility.yul\":2682:2683   */\n      0x00\n        /* \"#utility.yul\":2675:2763   */\n      mstore\n        /* \"#utility.yul\":2782:2786   */\n      0x12\n        /* \"#utility.yul\":2779:2780   */\n      0x04\n        /* \"#utility.yul\":2772:2787   */\n      mstore\n        /* \"#utility.yul\":2806:2810   */\n      0x24\n        /* \"#utility.yul\":2803:2804   */\n      0x00\n        /* \"#utility.yul\":2796:2811   */\n      revert\n        /* \"#utility.yul\":2823:2999   */\n    tag_24:\n        /* \"#utility.yul\":2855:2856   */\n      0x00\n        /* \"#utility.yul\":2872:2892   */\n      tag_87\n        /* \"#utility.yul\":2890:2891   */\n      dup3\n        /* \"#utility.yul\":2872:2892   */\n      tag_37\n      jump\t// in\n    tag_87:\n        /* \"#utility.yul\":2867:2892   */\n      swap2\n      pop\n        /* \"#utility.yul\":2906:2926   */\n      tag_88\n        /* \"#utility.yul\":2924:2925   */\n      dup4\n        /* \"#utility.yul\":2906:2926   */\n      tag_37\n      jump\t// in\n    tag_88:\n        /* \"#utility.yul\":2901:2926   */\n      swap3\n      pop\n        /* \"#utility.yul\":2945:2946   */\n      dup3\n        /* \"#utility.yul\":2935:2970   */\n      tag_89\n      jumpi\n        /* \"#utility.yul\":2950:2968   */\n      tag_90\n      tag_46\n      jump\t// in\n    tag_90:\n        /* \"#utility.yul\":2935:2970   */\n    tag_89:\n        /* \"#utility.yul\":2991:2992   */\n      dup3\n        /* \"#utility.yul\":2988:2989   */\n      dup3\n        /* \"#utility.yul\":2984:2993   */\n      mod\n        /* \"#utility.yul\":2979:2993   */\n      swap1\n      pop\n        /* \"#utility.yul\":2823:2999   */\n      swap3\n      swap2\n      pop\n      pop\n      jump\t// out\n        /* \"#utility.yul\":3005:3174   */\n    tag_47:\n        /* \"#utility.yul\":3089:3100   */\n      0x00\n        /* \"#utility.yul\":3123:3129   */\n      dup3\n        /* \"#utility.yul\":3118:3121   */\n      dup3\n        /* \"#utility.yul\":3111:3130   */\n      mstore\n        /* \"#utility.yul\":3163:3167   */\n      0x20\n        /* \"#utility.yul\":3158:3161   */\n      dup3\n        /* \"#utility.yul\":3154:3168   */\n      add\n        /* \"#utility.yul\":3139:3168   */\n      swap1\n      pop\n        /* \"#utility.yul\":3005:3174   */\n      swap3\n      swap2\n      pop\n      pop\n      jump\t// out\n        /* \"#utility.yul\":3180:3352   */\n    tag_48:\n        /* \"#utility.yul\":3320:3344   */\n      0x496e76616c6964206e756d626572206f66206269747300000000000000000000\n        /* \"#utility.yul\":3316:3317   */\n      0x00\n        /* \"#utility.yul\":3308:3314   */\n      dup3\n        /* \"#utility.yul\":3304:3318   */\n      add\n        /* \"#utility.yul\":3297:3345   */\n      mstore\n        /* \"#utility.yul\":3180:3352   */\n      pop\n      jump\t// out\n        /* \"#utility.yul\":3358:3724   */\n    tag_49:\n        /* \"#utility.yul\":3500:3503   */\n      0x00\n        /* \"#utility.yul\":3521:3588   */\n      tag_94\n        /* \"#utility.yul\":3585:3587   */\n      0x16\n        /* \"#utility.yul\":3580:3583   */\n      dup4\n        /* \"#utility.yul\":3521:3588   */\n      tag_47\n      jump\t// in\n    tag_94:\n        /* \"#utility.yul\":3514:3588   */\n      swap2\n      pop\n        /* \"#utility.yul\":3597:3690   */\n      tag_95\n        /* \"#utility.yul\":3686:3689   */\n      dup3\n        /* \"#utility.yul\":3597:3690   */\n      tag_48\n      jump\t// in\n    tag_95:\n        /* \"#utility.yul\":3715:3717   */\n      0x20\n        /* \"#utility.yul\":3710:3713   */\n      dup3\n        /* \"#utility.yul\":3706:3718   */\n      add\n        /* \"#utility.yul\":3699:3718   */\n      swap1\n      pop\n        /* \"#utility.yul\":3358:3724   */\n      swap2\n      swap1\n      pop\n      jump\t// out\n        /* \"#utility.yul\":3730:4149   */\n    tag_29:\n        /* \"#utility.yul\":3896:3900   */\n      0x00\n        /* \"#utility.yul\":3934:3936   */\n      0x20\n        /* \"#utility.yul\":3923:3932   */\n      dup3\n        /* \"#utility.yul\":3919:3937   */\n      add\n        /* \"#utility.yul\":3911:3937   */\n      swap1\n      pop\n        /* \"#utility.yul\":3983:3992   */\n      dup2\n        /* \"#utility.yul\":3977:3981   */\n      dup2\n        /* \"#utility.yul\":3973:3993   */\n      sub\n        /* \"#utility.yul\":3969:3970   */\n      0x00\n        /* \"#utility.yul\":3958:3967   */\n      dup4\n        /* \"#utility.yul\":3954:3971   */\n      add\n        /* \"#utility.yul\":3947:3994   */\n      mstore\n        /* \"#utility.yul\":4011:4142   */\n      tag_97\n        /* \"#utility.yul\":4137:4141   */\n      dup2\n        /* \"#utility.yul\":4011:4142   */\n      tag_49\n      jump\t// in\n    tag_97:\n        /* \"#utility.yul\":4003:4142   */\n      swap1\n      pop\n        /* \"#utility.yul\":3730:4149   */\n      swap2\n      swap1\n      pop\n      jump\t// out\n        /* \"#utility.yul\":4155:4335   */\n    tag_50:\n        /* \"#utility.yul\":4203:4280   */\n      0x4e487b7100000000000000000000000000000000000000000000000000000000\n        /* \"#utility.yul\":4200:4201   */\n      0x00\n        /* \"#utility.yul\":4193:4281   */\n      mstore\n        /* \"#utility.yul\":4300:4304   */\n      0x11\n        /* \"#utility.yul\":4297:4298   */\n      0x04\n        /* \"#utility.yul\":4290:4305   */\n      mstore\n        /* \"#utility.yul\":4324:4328   */\n      0x24\n        /* \"#utility.yul\":4321:4322   */\n      0x00\n        /* \"#utility.yul\":4314:4329   */\n      revert\n        /* \"#utility.yul\":4341:4532   */\n    tag_31:\n        /* \"#utility.yul\":4379:4383   */\n      0x00\n        /* \"#utility.yul\":4399:4417   */\n      tag_100\n        /* \"#utility.yul\":4415:4416   */\n      dup3\n        /* \"#utility.yul\":4399:4417   */\n      tag_42\n      jump\t// in\n    tag_100:\n        /* \"#utility.yul\":4394:4417   */\n      swap2\n      pop\n        /* \"#utility.yul\":4431:4449   */\n      tag_101\n        /* \"#utility.yul\":4447:4448   */\n      dup4\n        /* \"#utility.yul\":4431:4449   */\n      tag_42\n      jump\t// in\n    tag_101:\n        /* \"#utility.yul\":4426:4449   */\n      swap3\n      pop\n        /* \"#utility.yul\":4473:4474   */\n      dup3\n        /* \"#utility.yul\":4470:4471   */\n      dup3\n        /* \"#utility.yul\":4466:4475   */\n      sub\n        /* \"#utility.yul\":4458:4475   */\n      swap1\n      pop\n        /* \"#utility.yul\":4497:4501   */\n      0xff\n        /* \"#utility.yul\":4491:4495   */\n      dup2\n        /* \"#utility.yul\":4488:4502   */\n      gt\n        /* \"#utility.yul\":4485:4525   */\n      iszero\n      tag_102\n      jumpi\n        /* \"#utility.yul\":4505:4523   */\n      tag_103\n      tag_50\n      jump\t// in\n    tag_103:\n        /* \"#utility.yul\":4485:4525   */\n    tag_102:\n        /* \"#utility.yul\":4341:4532   */\n      swap3\n      swap2\n      pop\n      pop\n      jump\t// out\n\n    auxdata: 0xa26469706673582212206cbe3391454dac76a49e076243af7fd15e821fe42bdba0c1ae7b0b29ad94db5564736f6c63430008130033\n}\n",
				"bytecode": {
					"linkReferences": {},
					"object": "608060405234801561001057600080fd5b50610431806100206000396000f3fe608060405234801561001057600080fd5b50600436106100415760003560e01c80630441a3151461004657806349a7e03d14610076578063c04631fa146100a6575b600080fd5b610060600480360381019061005b91906101b4565b6100d6565b60405161006d91906101fc565b60405180910390f35b610090600480360381019061008b9190610250565b6100ef565b60405161009d919061029f565b60405180910390f35b6100c060048036038101906100bb91906101b4565b610161565b6040516100cd91906101fc565b60405180910390f35b6000806002836100e691906102e9565b14159050919050565b6000808260ff16118015610107575060208260ff1611155b610146576040517f08c379a000000000000000000000000000000000000000000000000000000000815260040161013d90610377565b60405180910390fd5b81602061015391906103c6565b60ff1683901c905092915050565b60008060028361017191906102e9565b149050919050565b600080fd5b6000819050919050565b6101918161017e565b811461019c57600080fd5b50565b6000813590506101ae81610188565b92915050565b6000602082840312156101ca576101c9610179565b5b60006101d88482850161019f565b91505092915050565b60008115159050919050565b6101f6816101e1565b82525050565b600060208201905061021160008301846101ed565b92915050565b600060ff82169050919050565b61022d81610217565b811461023857600080fd5b50565b60008135905061024a81610224565b92915050565b6000806040838503121561026757610266610179565b5b60006102758582860161019f565b92505060206102868582860161023b565b9150509250929050565b6102998161017e565b82525050565b60006020820190506102b46000830184610290565b92915050565b7f4e487b7100000000000000000000000000000000000000000000000000000000600052601260045260246000fd5b60006102f48261017e565b91506102ff8361017e565b92508261030f5761030e6102ba565b5b828206905092915050565b600082825260208201905092915050565b7f496e76616c6964206e756d626572206f66206269747300000000000000000000600082015250565b600061036160168361031a565b915061036c8261032b565b602082019050919050565b6000602082019050818103600083015261039081610354565b9050919050565b7f4e487b7100000000000000000000000000000000000000000000000000000000600052601160045260246000fd5b60006103d182610217565b91506103dc83610217565b9250828203905060ff8111156103f5576103f4610397565b5b9291505056fea26469706673582212206cbe3391454dac76a49e076243af7fd15e821fe42bdba0c1ae7b0b29ad94db5564736f6c63430008130033",
					"opcodes": "PUSH1 0x80 PUSH1 0x40 MSTORE CALLVALUE DUP1 ISZERO PUSH2 0x10 JUMPI PUSH1 0x0 DUP1 REVERT JUMPDEST POP PUSH2 0x431 DUP1 PUSH2 0x20 PUSH1 0x0 CODECOPY PUSH1 0x0 RETURN INVALID PUSH1 0x80 PUSH1 0x40 MSTORE CALLVALUE DUP1 ISZERO PUSH2 0x10 JUMPI PUSH1 0x0 DUP1 REVERT JUMPDEST POP PUSH1 0x4 CALLDATASIZE LT PUSH2 0x41 JUMPI PUSH1 0x0 CALLDATALOAD PUSH1 0xE0 SHR DUP1 PUSH4 0x441A315 EQ PUSH2 0x46 JUMPI DUP1 PUSH4 0x49A7E03D EQ PUSH2 0x76 JUMPI DUP1 PUSH4 0xC04631FA EQ PUSH2 0xA6 JUMPI JUMPDEST PUSH1 0x0 DUP1 REVERT JUMPDEST PUSH2 0x60 PUSH1 0x4 DUP1 CALLDATASIZE SUB DUP2 ADD SWAP1 PUSH2 0x5B SWAP2 SWAP1 PUSH2 0x1B4 JUMP JUMPDEST PUSH2 0xD6 JUMP JUMPDEST PUSH1 0x40 MLOAD PUSH2 0x6D SWAP2 SWAP1 PUSH2 0x1FC JUMP JUMPDEST PUSH1 0x40 MLOAD DUP1 SWAP2 SUB SWAP1 RETURN JUMPDEST PUSH2 0x90 PUSH1 0x4 DUP1 CALLDATASIZE SUB DUP2 ADD SWAP1 PUSH2 0x8B SWAP2 SWAP1 PUSH2 0x250 JUMP JUMPDEST PUSH2 0xEF JUMP JUMPDEST PUSH1 0x40 MLOAD PUSH2 0x9D SWAP2 SWAP1 PUSH2 0x29F JUMP JUMPDEST PUSH1 0x40 MLOAD DUP1 SWAP2 SUB SWAP1 RETURN JUMPDEST PUSH2 0xC0 PUSH1 0x4 DUP1 CALLDATASIZE SUB DUP2 ADD SWAP1 PUSH2 0xBB SWAP2 SWAP1 PUSH2 0x1B4 JUMP JUMPDEST PUSH2 0x161 JUMP JUMPDEST PUSH1 0x40 MLOAD PUSH2 0xCD SWAP2 SWAP1 PUSH2 0x1FC JUMP JUMPDEST PUSH1 0x40 MLOAD DUP1 SWAP2 SUB SWAP1 RETURN JUMPDEST PUSH1 0x0 DUP1 PUSH1 0x2 DUP4 PUSH2 0xE6 SWAP2 SWAP1 PUSH2 0x2E9 JUMP JUMPDEST EQ ISZERO SWAP1 POP SWAP2 SWAP1 POP JUMP JUMPDEST PUSH1 0x0 DUP1 DUP3 PUSH1 0xFF AND GT DUP1 ISZERO PUSH2 0x107 JUMPI POP PUSH1 0x20 DUP3 PUSH1 0xFF AND GT ISZERO JUMPDEST PUSH2 0x146 JUMPI PUSH1 0x40 MLOAD PUSH32 0x8C379A000000000000000000000000000000000000000000000000000000000 DUP2 MSTORE PUSH1 0x4 ADD PUSH2 0x13D SWAP1 PUSH2 0x377 JUMP JUMPDEST PUSH1 0x40 MLOAD DUP1 SWAP2 SUB SWAP1 REVERT JUMPDEST DUP2 PUSH1 0x20 PUSH2 0x153 SWAP2 SWAP1 PUSH2 0x3C6 JUMP JUMPDEST PUSH1 0xFF AND DUP4 SWAP1 SHR SWAP1 POP SWAP3 SWAP2 POP POP JUMP JUMPDEST PUSH1 0x0 DUP1 PUSH1 0x2 DUP4 PUSH2 0x171 SWAP2 SWAP1 PUSH2 0x2E9 JUMP JUMPDEST EQ SWAP1 POP SWAP2 SWAP1 POP JUMP JUMPDEST PUSH1 0x0 DUP1 REVERT JUMPDEST PUSH1 0x0 DUP2 SWAP1 POP SWAP2 SWAP1 POP JUMP JUMPDEST PUSH2 0x191 DUP2 PUSH2 0x17E JUMP JUMPDEST DUP2 EQ PUSH2 0x19C JUMPI PUSH1 0x0 DUP1 REVERT JUMPDEST POP JUMP JUMPDEST PUSH1 0x0 DUP2 CALLDATALOAD SWAP1 POP PUSH2 0x1AE DUP2 PUSH2 0x188 JUMP JUMPDEST SWAP3 SWAP2 POP POP JUMP JUMPDEST PUSH1 0x0 PUSH1 0x20 DUP3 DUP5 SUB SLT ISZERO PUSH2 0x1CA JUMPI PUSH2 0x1C9 PUSH2 0x179 JUMP JUMPDEST JUMPDEST PUSH1 0x0 PUSH2 0x1D8 DUP5 DUP3 DUP6 ADD PUSH2 0x19F JUMP JUMPDEST SWAP2 POP POP SWAP3 SWAP2 POP POP JUMP JUMPDEST PUSH1 0x0 DUP2 ISZERO ISZERO SWAP1 POP SWAP2 SWAP1 POP JUMP JUMPDEST PUSH2 0x1F6 DUP2 PUSH2 0x1E1 JUMP JUMPDEST DUP3 MSTORE POP POP JUMP JUMPDEST PUSH1 0x0 PUSH1 0x20 DUP3 ADD SWAP1 POP PUSH2 0x211 PUSH1 0x0 DUP4 ADD DUP5 PUSH2 0x1ED JUMP JUMPDEST SWAP3 SWAP2 POP POP JUMP JUMPDEST PUSH1 0x0 PUSH1 0xFF DUP3 AND SWAP1 POP SWAP2 SWAP1 POP JUMP JUMPDEST PUSH2 0x22D DUP2 PUSH2 0x217 JUMP JUMPDEST DUP2 EQ PUSH2 0x238 JUMPI PUSH1 0x0 DUP1 REVERT JUMPDEST POP JUMP JUMPDEST PUSH1 0x0 DUP2 CALLDATALOAD SWAP1 POP PUSH2 0x24A DUP2 PUSH2 0x224 JUMP JUMPDEST SWAP3 SWAP2 POP POP JUMP JUMPDEST PUSH1 0x0 DUP1 PUSH1 0x40 DUP4 DUP6 SUB SLT ISZERO PUSH2 0x267 JUMPI PUSH2 0x266 PUSH2 0x179 JUMP JUMPDEST JUMPDEST PUSH1 0x0 PUSH2 0x275 DUP6 DUP3 DUP7 ADD PUSH2 0x19F JUMP JUMPDEST SWAP3 POP POP PUSH1 0x20 PUSH2 0x286 DUP6 DUP3 DUP7 ADD PUSH2 0x23B JUMP JUMPDEST SWAP2 POP POP SWAP3 POP SWAP3 SWAP1 POP JUMP JUMPDEST PUSH2 0x299 DUP2 PUSH2 0x17E JUMP JUMPDEST DUP3 MSTORE POP POP JUMP JUMPDEST PUSH1 0x0 PUSH1 0x20 DUP3 ADD SWAP1 POP PUSH2 0x2B4 PUSH1 0x0 DUP4 ADD DUP5 PUSH2 0x290 JUMP JUMPDEST SWAP3 SWAP2 POP POP JUMP JUMPDEST PUSH32 0x4E487B7100000000000000000000000000000000000000000000000000000000 PUSH1 0x0 MSTORE PUSH1 0x12 PUSH1 0x4 MSTORE PUSH1 0x24 PUSH1 0x0 REVERT JUMPDEST PUSH1 0x0 PUSH2 0x2F4 DUP3 PUSH2 0x17E JUMP JUMPDEST SWAP2 POP PUSH2 0x2FF DUP4 PUSH2 0x17E JUMP JUMPDEST SWAP3 POP DUP3 PUSH2 0x30F JUMPI PUSH2 0x30E PUSH2 0x2BA JUMP JUMPDEST JUMPDEST DUP3 DUP3 MOD SWAP1 POP SWAP3 SWAP2 POP POP JUMP JUMPDEST PUSH1 0x0 DUP3 DUP3 MSTORE PUSH1 0x20 DUP3 ADD SWAP1 POP SWAP3 SWAP2 POP POP JUMP JUMPDEST PUSH32 0x496E76616C6964206E756D626572206F66206269747300000000000000000000 PUSH1 0x0 DUP3 ADD MSTORE POP JUMP JUMPDEST PUSH1 0x0 PUSH2 0x361 PUSH1 0x16 DUP4 PUSH2 0x31A JUMP JUMPDEST SWAP2 POP PUSH2 0x36C DUP3 PUSH2 0x32B JUMP JUMPDEST PUSH1 0x20 DUP3 ADD SWAP1 POP SWAP2 SWAP1 POP JUMP JUMPDEST PUSH1 0x0 PUSH1 0x20 DUP3 ADD SWAP1 POP DUP2 DUP2 SUB PUSH1 0x0 DUP4 ADD MSTORE PUSH2 0x390 DUP2 PUSH2 0x354 JUMP JUMPDEST SWAP1 POP SWAP2 SWAP1 POP JUMP JUMPDEST PUSH32 0x4E487B7100000000000000000000000000000000000000000000000000000000 PUSH1 0x0 MSTORE PUSH1 0x11 PUSH1 0x4 MSTORE PUSH1 0x24 PUSH1 0x0 REVERT JUMPDEST PUSH1 0x0 PUSH2 0x3D1 DUP3 PUSH2 0x217 JUMP JUMPDEST SWAP2 POP PUSH2 0x3DC DUP4 PUSH2 0x217 JUMP JUMPDEST SWAP3 POP DUP3 DUP3 SUB SWAP1 POP PUSH1 0xFF DUP2 GT ISZERO PUSH2 0x3F5 JUMPI PUSH2 0x3F4 PUSH2 0x397 JUMP JUMPDEST JUMPDEST SWAP3 SWAP2 POP POP JUMP INVALID LOG2 PUSH5 0x6970667358 0x22 SLT KECCAK256 PUSH13 0xBE3391454DAC76A49E076243AF PUSH32 0xD15E821FE42BDBA0C1AE7B0B29AD94DB5564736F6C6343000813003300000000 "
				},
				"gasEstimates": {
					"creation": {
						"codeDepositCost": "214600",
						"executionCost": "257",
						"totalCost": "214857"
					},
					"external": {
						"evenNum(uint256)": "infinite",
						"getMostSignificantBits(uint256,uint8)": "infinite",
						"oddNum(uint256)": "infinite"
					}
				},
				"methodIdentifiers": {
					"evenNum(uint256)": "c04631fa",
					"getMostSignificantBits(uint256,uint8)": "49a7e03d",
					"oddNum(uint256)": "0441a315"
				}
			},
			"storageLayout": {
				"storage": [],
				"types": null
			},
			"userdoc": {
				"kind": "user",
				"methods": {},
				"version": 1
			}
		}
	}
}